{
    "_format": "hh-sol-artifact-1",
    "contractName": "SocialOracle",
    "sourceName": "contracts/SocialOracle.sol",
    "abi": [
        {
            "inputs": [
                {
                    "internalType": "string",
                    "name": "_name",
                    "type": "string"
                }
            ],
            "stateMutability": "nonpayable",
            "type": "constructor"
        },
        {
            "inputs": [
                {
                    "internalType": "address",
                    "name": "_dao",
                    "type": "address"
                },
                {
                    "internalType": "address[]",
                    "name": "_newMembers",
                    "type": "address[]"
                }
            ],
            "name": "addMembers",
            "outputs": [],
            "stateMutability": "nonpayable",
            "type": "function"
        },
        {
            "inputs": [
                {
                    "internalType": "address",
                    "name": "_dao",
                    "type": "address"
                },
                {
                    "internalType": "address",
                    "name": "_SBTAddr",
                    "type": "address"
                }
            ],
            "name": "end",
            "outputs": [
                {
                    "internalType": "bool",
                    "name": "",
                    "type": "bool"
                }
            ],
            "stateMutability": "nonpayable",
            "type": "function"
        },
        {
            "inputs": [
                {
                    "internalType": "address",
                    "name": "_dao",
                    "type": "address"
                }
            ],
            "name": "getDaoInfo",
            "outputs": [
                {
                    "components": [
                        {
                            "internalType": "string",
                            "name": "name",
                            "type": "string"
                        },
                        {
                            "internalType": "address",
                            "name": "manager",
                            "type": "address"
                        },
                        {
                            "internalType": "address[]",
                            "name": "members",
                            "type": "address[]"
                        },
                        {
                            "internalType": "uint256",
                            "name": "numberThreshold",
                            "type": "uint256"
                        },
                        {
                            "internalType": "int256",
                            "name": "requiredScore",
                            "type": "int256"
                        },
                        {
                            "internalType": "uint256",
                            "name": "randomMemberNumber",
                            "type": "uint256"
                        }
                    ],
                    "internalType": "struct SocialOracle.Dao",
                    "name": "",
                    "type": "tuple"
                }
            ],
            "stateMutability": "view",
            "type": "function"
        },
        {
            "inputs": [
                {
                    "internalType": "address",
                    "name": "_dao",
                    "type": "address"
                }
            ],
            "name": "getDaoState",
            "outputs": [
                {
                    "components": [
                        {
                            "internalType": "int256[]",
                            "name": "scores",
                            "type": "int256[]"
                        },
                        {
                            "internalType": "string[]",
                            "name": "urls",
                            "type": "string[]"
                        },
                        {
                            "internalType": "string[]",
                            "name": "names",
                            "type": "string[]"
                        },
                        {
                            "internalType": "address[]",
                            "name": "participants",
                            "type": "address[]"
                        }
                    ],
                    "internalType": "struct SocialOracle.SocialDataInput",
                    "name": "",
                    "type": "tuple"
                }
            ],
            "stateMutability": "view",
            "type": "function"
        },
        {
            "inputs": [
                {
                    "internalType": "address",
                    "name": "_dao",
                    "type": "address"
                }
            ],
            "name": "getRandomMembers",
            "outputs": [
                {
                    "internalType": "address[]",
                    "name": "",
                    "type": "address[]"
                }
            ],
            "stateMutability": "view",
            "type": "function"
        },
        {
            "inputs": [
                {
                    "internalType": "address",
                    "name": "_dao",
                    "type": "address"
                }
            ],
            "name": "getStarted",
            "outputs": [
                {
                    "internalType": "bool",
                    "name": "",
                    "type": "bool"
                }
            ],
            "stateMutability": "view",
            "type": "function"
        },
        {
            "inputs": [],
            "name": "name",
            "outputs": [
                {
                    "internalType": "string",
                    "name": "",
                    "type": "string"
                }
            ],
            "stateMutability": "view",
            "type": "function"
        },
        {
            "inputs": [],
            "name": "operator",
            "outputs": [
                {
                    "internalType": "address",
                    "name": "",
                    "type": "address"
                }
            ],
            "stateMutability": "view",
            "type": "function"
        },
        {
            "inputs": [
                {
                    "internalType": "address",
                    "name": "_dao",
                    "type": "address"
                },
                {
                    "components": [
                        {
                            "internalType": "string",
                            "name": "name",
                            "type": "string"
                        },
                        {
                            "internalType": "address",
                            "name": "manager",
                            "type": "address"
                        },
                        {
                            "internalType": "address[]",
                            "name": "members",
                            "type": "address[]"
                        },
                        {
                            "internalType": "uint256",
                            "name": "numberThreshold",
                            "type": "uint256"
                        },
                        {
                            "internalType": "int256",
                            "name": "requiredScore",
                            "type": "int256"
                        },
                        {
                            "internalType": "uint256",
                            "name": "randomMemberNumber",
                            "type": "uint256"
                        }
                    ],
                    "internalType": "struct SocialOracle.Dao",
                    "name": "_daoInfo",
                    "type": "tuple"
                }
            ],
            "name": "register",
            "outputs": [],
            "stateMutability": "nonpayable",
            "type": "function"
        },
        {
            "inputs": [
                {
                    "internalType": "address",
                    "name": "_dao",
                    "type": "address"
                }
            ],
            "name": "start",
            "outputs": [],
            "stateMutability": "nonpayable",
            "type": "function"
        },
        {
            "inputs": [
                {
                    "internalType": "address",
                    "name": "_dao",
                    "type": "address"
                },
                {
                    "components": [
                        {
                            "internalType": "int256[]",
                            "name": "scores",
                            "type": "int256[]"
                        },
                        {
                            "internalType": "string[]",
                            "name": "urls",
                            "type": "string[]"
                        },
                        {
                            "internalType": "string[]",
                            "name": "names",
                            "type": "string[]"
                        },
                        {
                            "internalType": "address[]",
                            "name": "participants",
                            "type": "address[]"
                        }
                    ],
                    "internalType": "struct SocialOracle.SocialDataInput",
                    "name": "_socialData",
                    "type": "tuple"
                }
            ],
            "name": "submit",
            "outputs": [],
            "stateMutability": "nonpayable",
            "type": "function"
        }
    ],
    "bytecode": "0x60806040527fc5d2460186f7233c927e7db2dcc703c0e500b653ca82273b7bfad8045d85a47060001b6002553480156200003857600080fd5b50604051620050573803806200505783398181016040528101906200005e9190620001e0565b806001908051906020019062000076929190620000be565b50336000806101000a81548173ffffffffffffffffffffffffffffffffffffffff021916908373ffffffffffffffffffffffffffffffffffffffff1602179055505062000395565b828054620000cc90620002ba565b90600052602060002090601f016020900481019282620000f057600085556200013c565b82601f106200010b57805160ff19168380011785556200013c565b828001600101855582156200013c579182015b828111156200013b5782518255916020019190600101906200011e565b5b5090506200014b91906200014f565b5090565b5b808211156200016a57600081600090555060010162000150565b5090565b6000620001856200017f846200024e565b62000225565b9050828152602081018484840111156200019e57600080fd5b620001ab84828562000284565b509392505050565b600082601f830112620001c557600080fd5b8151620001d78482602086016200016e565b91505092915050565b600060208284031215620001f357600080fd5b600082015167ffffffffffffffff8111156200020e57600080fd5b6200021c84828501620001b3565b91505092915050565b60006200023162000244565b90506200023f8282620002f0565b919050565b6000604051905090565b600067ffffffffffffffff8211156200026c576200026b62000355565b5b620002778262000384565b9050602081019050919050565b60005b83811015620002a457808201518184015260208101905062000287565b83811115620002b4576000848401525b50505050565b60006002820490506001821680620002d357607f821691505b60208210811415620002ea57620002e962000326565b5b50919050565b620002fb8262000384565b810181811067ffffffffffffffff821117156200031d576200031c62000355565b5b80604052505050565b7f4e487b7100000000000000000000000000000000000000000000000000000000600052602260045260246000fd5b7f4e487b7100000000000000000000000000000000000000000000000000000000600052604160045260246000fd5b6000601f19601f8301169050919050565b614cb280620003a56000396000f3fe608060405234801561001057600080fd5b50600436106100a95760003560e01c80635aa046cc116100715780635aa046cc14610166578063a528915814610182578063b49cd7c4146101b2578063c5796b01146101ce578063dd0b281e146101fe578063ec951d271461021a576100a9565b806306fdde03146100ae57806311ac86e8146100cc57806338d56fa0146100fc5780634f69f5e514610118578063570ca73514610148575b600080fd5b6100b661024a565b6040516100c39190614436565b60405180910390f35b6100e660048036038101906100e19190613ca0565b6102d8565b6040516100f3919061453a565b60405180910390f35b61011660048036038101906101119190613d59565b6105c9565b005b610132600480360381019061012d9190613ca0565b610749565b60405161013f9190614518565b60405180910390f35b610150610936565b60405161015d91906143ae565b60405180910390f35b610180600480360381019061017b9190613d05565b61095a565b005b61019c60048036038101906101979190613cc9565b610b89565b6040516101a9919061441b565b60405180910390f35b6101cc60048036038101906101c79190613dad565b610ce4565b005b6101e860048036038101906101e39190613ca0565b6113cb565b6040516101f591906143f9565b60405180910390f35b61021860048036038101906102139190613ca0565b611498565b005b610234600480360381019061022f9190613ca0565b6117ef565b604051610241919061441b565b60405180910390f35b6001805461025790614883565b80601f016020809104026020016040519081016040528092919081815260200182805461028390614883565b80156102d05780601f106102a5576101008083540402835291602001916102d0565b820191906000526020600020905b8154815290600101906020018083116102b357829003601f168201915b505050505081565b6102e06134a7565b600960008373ffffffffffffffffffffffffffffffffffffffff1673ffffffffffffffffffffffffffffffffffffffff1681526020019081526020016000206040518060800160405290816000820180548060200260200160405190810160405280929190818152602001828054801561037957602002820191906000526020600020905b815481526020019060010190808311610365575b5050505050815260200160018201805480602002602001604051908101604052809291908181526020016000905b828210156104535783829060005260206000200180546103c690614883565b80601f01602080910402602001604051908101604052809291908181526020018280546103f290614883565b801561043f5780601f106104145761010080835404028352916020019161043f565b820191906000526020600020905b81548152906001019060200180831161042257829003601f168201915b5050505050815260200190600101906103a7565b50505050815260200160028201805480602002602001604051908101604052809291908181526020016000905b8282101561052c57838290600052602060002001805461049f90614883565b80601f01602080910402602001604051908101604052809291908181526020018280546104cb90614883565b80156105185780601f106104ed57610100808354040283529160200191610518565b820191906000526020600020905b8154815290600101906020018083116104fb57829003601f168201915b505050505081526020019060010190610480565b505050508152602001600382018054806020026020016040519081016040528092919081815260200182805480156105b957602002820191906000526020600020905b8160009054906101000a900473ffffffffffffffffffffffffffffffffffffffff1673ffffffffffffffffffffffffffffffffffffffff168152602001906001019080831161056f575b5050505050815250509050919050565b600254600360008473ffffffffffffffffffffffffffffffffffffffff1673ffffffffffffffffffffffffffffffffffffffff16815260200190815260200160002060000160405161061b919061436b565b604051809103902014610663576040517f08c379a000000000000000000000000000000000000000000000000000000000815260040161065a90614498565b60405180910390fd5b80600360008473ffffffffffffffffffffffffffffffffffffffff1673ffffffffffffffffffffffffffffffffffffffff16815260200190815260200160002060008201518160000190805190602001906106bf9291906134cf565b5060208201518160010160006101000a81548173ffffffffffffffffffffffffffffffffffffffff021916908373ffffffffffffffffffffffffffffffffffffffff1602179055506040820151816002019080519060200190610723929190613555565b50606082015181600301556080820151816004015560a082015181600501559050505050565b6107516135df565b600360008373ffffffffffffffffffffffffffffffffffffffff1673ffffffffffffffffffffffffffffffffffffffff1681526020019081526020016000206040518060c00160405290816000820180546107ab90614883565b80601f01602080910402602001604051908101604052809291908181526020018280546107d790614883565b80156108245780601f106107f957610100808354040283529160200191610824565b820191906000526020600020905b81548152906001019060200180831161080757829003601f168201915b505050505081526020016001820160009054906101000a900473ffffffffffffffffffffffffffffffffffffffff1673ffffffffffffffffffffffffffffffffffffffff1673ffffffffffffffffffffffffffffffffffffffff1681526020016002820180548060200260200160405190810160405280929190818152602001828054801561090857602002820191906000526020600020905b8160009054906101000a900473ffffffffffffffffffffffffffffffffffffffff1673ffffffffffffffffffffffffffffffffffffffff16815260200190600101908083116108be575b5050505050815260200160038201548152602001600482015481526020016005820154815250509050919050565b60008054906101000a900473ffffffffffffffffffffffffffffffffffffffff1681565b600360008373ffffffffffffffffffffffffffffffffffffffff1673ffffffffffffffffffffffffffffffffffffffff16815260200190815260200160002060010160009054906101000a900473ffffffffffffffffffffffffffffffffffffffff1673ffffffffffffffffffffffffffffffffffffffff163373ffffffffffffffffffffffffffffffffffffffff1614610a2a576040517f08c379a0000000000000000000000000000000000000000000000000000000008152600401610a21906144f8565b60405180910390fd5b6000600360008473ffffffffffffffffffffffffffffffffffffffff1673ffffffffffffffffffffffffffffffffffffffff168152602001908152602001600020600201905060005b8251811015610b315781838281518110610ab6577f4e487b7100000000000000000000000000000000000000000000000000000000600052603260045260246000fd5b60200260200101519080600181540180825580915050600190039060005260206000200160009091909190916101000a81548173ffffffffffffffffffffffffffffffffffffffff021916908373ffffffffffffffffffffffffffffffffffffffff1602179055508080610b29906148e6565b915050610a73565b5080600360008573ffffffffffffffffffffffffffffffffffffffff1673ffffffffffffffffffffffffffffffffffffffff168152602001908152602001600020600201908054610b8392919061362b565b50505050565b6000600360008473ffffffffffffffffffffffffffffffffffffffff1673ffffffffffffffffffffffffffffffffffffffff16815260200190815260200160002060010160009054906101000a900473ffffffffffffffffffffffffffffffffffffffff1673ffffffffffffffffffffffffffffffffffffffff163373ffffffffffffffffffffffffffffffffffffffff1614610c5b576040517f08c379a0000000000000000000000000000000000000000000000000000000008152600401610c5290614478565b60405180910390fd5b6000610c6684611845565b90508015610c7957610c788484612697565b5b6000600660008673ffffffffffffffffffffffffffffffffffffffff1673ffffffffffffffffffffffffffffffffffffffff16815260200190815260200160002060006101000a81548160ff021916908315150217905550610cda84612cc4565b8091505092915050565b600660008373ffffffffffffffffffffffffffffffffffffffff1673ffffffffffffffffffffffffffffffffffffffff16815260200190815260200160002060009054906101000a900460ff16610d70576040517f08c379a0000000000000000000000000000000000000000000000000000000008152600401610d67906144b8565b60405180910390fd5b610d7a82336130b9565b610db9576040517f08c379a0000000000000000000000000000000000000000000000000000000008152600401610db090614458565b60405180910390fd5b600a339080600181540180825580915050600190039060005260206000200160009091909190916101000a81548173ffffffffffffffffffffffffffffffffffffffff021916908373ffffffffffffffffffffffffffffffffffffffff16021790555080600860008473ffffffffffffffffffffffffffffffffffffffff1673ffffffffffffffffffffffffffffffffffffffff16815260200190815260200160002060003373ffffffffffffffffffffffffffffffffffffffff1673ffffffffffffffffffffffffffffffffffffffff1681526020019081526020016000206000820151816000019080519060200190610eb592919061367d565b506020820151816001019080519060200190610ed29291906136ca565b506040820151816002019080519060200190610eef9291906136ca565b506060820151816003019080519060200190610f0c929190613555565b509050508060600151600760008473ffffffffffffffffffffffffffffffffffffffff1673ffffffffffffffffffffffffffffffffffffffff16815260200190815260200160002060003373ffffffffffffffffffffffffffffffffffffffff1673ffffffffffffffffffffffffffffffffffffffff1681526020019081526020016000206003019080519060200190610fa7929190613555565b5060005b8160600151518110156113c65781604001518181518110610ff5577f4e487b7100000000000000000000000000000000000000000000000000000000600052603260045260246000fd5b6020026020010151600760008573ffffffffffffffffffffffffffffffffffffffff1673ffffffffffffffffffffffffffffffffffffffff16815260200190815260200160002060003373ffffffffffffffffffffffffffffffffffffffff1673ffffffffffffffffffffffffffffffffffffffff1681526020019081526020016000206002016000846060015184815181106110bb577f4e487b7100000000000000000000000000000000000000000000000000000000600052603260045260246000fd5b602002602001015173ffffffffffffffffffffffffffffffffffffffff1673ffffffffffffffffffffffffffffffffffffffff16815260200190815260200160002090805190602001906111109291906134cf565b508160200151818151811061114e577f4e487b7100000000000000000000000000000000000000000000000000000000600052603260045260246000fd5b6020026020010151600760008573ffffffffffffffffffffffffffffffffffffffff1673ffffffffffffffffffffffffffffffffffffffff16815260200190815260200160002060003373ffffffffffffffffffffffffffffffffffffffff1673ffffffffffffffffffffffffffffffffffffffff168152602001908152602001600020600101600084606001518481518110611214577f4e487b7100000000000000000000000000000000000000000000000000000000600052603260045260246000fd5b602002602001015173ffffffffffffffffffffffffffffffffffffffff1673ffffffffffffffffffffffffffffffffffffffff16815260200190815260200160002090805190602001906112699291906134cf565b50816000015181815181106112a7577f4e487b7100000000000000000000000000000000000000000000000000000000600052603260045260246000fd5b6020026020010151600760008573ffffffffffffffffffffffffffffffffffffffff1673ffffffffffffffffffffffffffffffffffffffff16815260200190815260200160002060003373ffffffffffffffffffffffffffffffffffffffff1673ffffffffffffffffffffffffffffffffffffffff16815260200190815260200160002060000160008460600151848151811061136d577f4e487b7100000000000000000000000000000000000000000000000000000000600052603260045260246000fd5b602002602001015173ffffffffffffffffffffffffffffffffffffffff1673ffffffffffffffffffffffffffffffffffffffff1681526020019081526020016000208190555080806113be906148e6565b915050610fab565b505050565b6060600560008373ffffffffffffffffffffffffffffffffffffffff1673ffffffffffffffffffffffffffffffffffffffff16815260200190815260200160002080548060200260200160405190810160405280929190818152602001828054801561148c57602002820191906000526020600020905b8160009054906101000a900473ffffffffffffffffffffffffffffffffffffffff1673ffffffffffffffffffffffffffffffffffffffff1681526020019060010190808311611442575b50505050509050919050565b600360008273ffffffffffffffffffffffffffffffffffffffff1673ffffffffffffffffffffffffffffffffffffffff16815260200190815260200160002060010160009054906101000a900473ffffffffffffffffffffffffffffffffffffffff1673ffffffffffffffffffffffffffffffffffffffff163373ffffffffffffffffffffffffffffffffffffffff1614611568576040517f08c379a000000000000000000000000000000000000000000000000000000000815260040161155f906144d8565b60405180910390fd5b6001600660008373ffffffffffffffffffffffffffffffffffffffff1673ffffffffffffffffffffffffffffffffffffffff16815260200190815260200160002060006101000a81548160ff0219169083151502179055506000600360008373ffffffffffffffffffffffffffffffffffffffff1673ffffffffffffffffffffffffffffffffffffffff16815260200190815260200160002060020180548060200260200160405190810160405280929190818152602001828054801561168457602002820191906000526020600020905b8160009054906101000a900473ffffffffffffffffffffffffffffffffffffffff1673ffffffffffffffffffffffffffffffffffffffff168152602001906001019080831161163a575b5050505050905060008151905060005b600360008573ffffffffffffffffffffffffffffffffffffffff1673ffffffffffffffffffffffffffffffffffffffff168152602001908152602001600020600501548110156117e9576000826116e961339d565b6116f39190614939565b9050600560008673ffffffffffffffffffffffffffffffffffffffff1673ffffffffffffffffffffffffffffffffffffffff16815260200190815260200160002084828151811061176d577f4e487b7100000000000000000000000000000000000000000000000000000000600052603260045260246000fd5b60200260200101519080600181540180825580915050600190039060005260206000200160009091909190916101000a81548173ffffffffffffffffffffffffffffffffffffffff021916908373ffffffffffffffffffffffffffffffffffffffff1602179055505080806117e1906148e6565b915050611694565b50505050565b6000600660008373ffffffffffffffffffffffffffffffffffffffff1673ffffffffffffffffffffffffffffffffffffffff16815260200190815260200160002060009054906101000a900460ff169050919050565b6000600360008373ffffffffffffffffffffffffffffffffffffffff1673ffffffffffffffffffffffffffffffffffffffff16815260200190815260200160002060030154600a80549050101561189f5760009050612692565b60005b600a80549050811015611d885760005b600c80549050811015611d7457611b2b600860008673ffffffffffffffffffffffffffffffffffffffff1673ffffffffffffffffffffffffffffffffffffffff1681526020019081526020016000206000600a858154811061193d577f4e487b7100000000000000000000000000000000000000000000000000000000600052603260045260246000fd5b9060005260206000200160009054906101000a900473ffffffffffffffffffffffffffffffffffffffff1673ffffffffffffffffffffffffffffffffffffffff1673ffffffffffffffffffffffffffffffffffffffff1681526020019081526020016000206000018054806020026020016040519081016040528092919081815260200182805480156119ef57602002820191906000526020600020905b8154815260200190600101908083116119db575b5050505050600860008773ffffffffffffffffffffffffffffffffffffffff1673ffffffffffffffffffffffffffffffffffffffff1681526020019081526020016000206000600c8581548110611a6f577f4e487b7100000000000000000000000000000000000000000000000000000000600052603260045260246000fd5b9060005260206000200160009054906101000a900473ffffffffffffffffffffffffffffffffffffffff1673ffffffffffffffffffffffffffffffffffffffff1673ffffffffffffffffffffffffffffffffffffffff168152602001908152602001600020600001805480602002602001604051908101604052809291908181526020018280548015611b2157602002820191906000526020600020905b815481526020019060010190808311611b0d575b50505050506133d0565b15611bf0576001600b6000600c8481548110611b70577f4e487b7100000000000000000000000000000000000000000000000000000000600052603260045260246000fd5b9060005260206000200160009054906101000a900473ffffffffffffffffffffffffffffffffffffffff1673ffffffffffffffffffffffffffffffffffffffff1673ffffffffffffffffffffffffffffffffffffffff1681526020019081526020016000206000828254611be4919061473f565b92505081905550611d61565b6001600b6000600a8581548110611c30577f4e487b7100000000000000000000000000000000000000000000000000000000600052603260045260246000fd5b9060005260206000200160009054906101000a900473ffffffffffffffffffffffffffffffffffffffff1673ffffffffffffffffffffffffffffffffffffffff1673ffffffffffffffffffffffffffffffffffffffff16815260200190815260200160002081905550600c600a8381548110611cd5577f4e487b7100000000000000000000000000000000000000000000000000000000600052603260045260246000fd5b9060005260206000200160009054906101000a900473ffffffffffffffffffffffffffffffffffffffff169080600181540180825580915050600190039060005260206000200160009091909190916101000a81548173ffffffffffffffffffffffffffffffffffffffff021916908373ffffffffffffffffffffffffffffffffffffffff1602179055505b8080611d6c906148e6565b9150506118b2565b508080611d80906148e6565b9150506118a2565b5060008060005b600c80549050811015611e6057600b6000600c8381548110611dda577f4e487b7100000000000000000000000000000000000000000000000000000000600052603260045260246000fd5b9060005260206000200160009054906101000a900473ffffffffffffffffffffffffffffffffffffffff1673ffffffffffffffffffffffffffffffffffffffff1673ffffffffffffffffffffffffffffffffffffffff1681526020019081526020016000205482611e4b919061473f565b91508080611e58906148e6565b915050611d8f565b50600080600190505b600c805490508110156120bb57600b6000600c8381548110611eb4577f4e487b7100000000000000000000000000000000000000000000000000000000600052603260045260246000fd5b9060005260206000200160009054906101000a900473ffffffffffffffffffffffffffffffffffffffff1673ffffffffffffffffffffffffffffffffffffffff1673ffffffffffffffffffffffffffffffffffffffff16815260200190815260200160002054600b6000600c8581548110611f58577f4e487b7100000000000000000000000000000000000000000000000000000000600052603260045260246000fd5b9060005260206000200160009054906101000a900473ffffffffffffffffffffffffffffffffffffffff1673ffffffffffffffffffffffffffffffffffffffff1673ffffffffffffffffffffffffffffffffffffffff168152602001908152602001600020541061203d57600c8281548110611ffd577f4e487b7100000000000000000000000000000000000000000000000000000000600052603260045260246000fd5b9060005260206000200160009054906101000a900473ffffffffffffffffffffffffffffffffffffffff1693508080612035906148e6565b9150506120b6565b600c8181548110612077577f4e487b7100000000000000000000000000000000000000000000000000000000600052603260045260246000fd5b9060005260206000200160009054906101000a900473ffffffffffffffffffffffffffffffffffffffff16935080915080806120b2906148e6565b9150505b611e69565b826002600b60008773ffffffffffffffffffffffffffffffffffffffff1673ffffffffffffffffffffffffffffffffffffffff168152602001908152602001600020546121089190614795565b101561211b576000945050505050612692565b60005b600760008873ffffffffffffffffffffffffffffffffffffffff1673ffffffffffffffffffffffffffffffffffffffff16815260200190815260200160002060008673ffffffffffffffffffffffffffffffffffffffff1673ffffffffffffffffffffffffffffffffffffffff16815260200190815260200160002060030180549050811015612688576000600760008973ffffffffffffffffffffffffffffffffffffffff1673ffffffffffffffffffffffffffffffffffffffff16815260200190815260200160002060008773ffffffffffffffffffffffffffffffffffffffff1673ffffffffffffffffffffffffffffffffffffffff1681526020019081526020016000206003018281548110612261577f4e487b7100000000000000000000000000000000000000000000000000000000600052603260045260246000fd5b9060005260206000200160009054906101000a900473ffffffffffffffffffffffffffffffffffffffff169050600760008973ffffffffffffffffffffffffffffffffffffffff1673ffffffffffffffffffffffffffffffffffffffff16815260200190815260200160002060008773ffffffffffffffffffffffffffffffffffffffff1673ffffffffffffffffffffffffffffffffffffffff16815260200190815260200160002060000160008273ffffffffffffffffffffffffffffffffffffffff1673ffffffffffffffffffffffffffffffffffffffff16815260200190815260200160002054600460008a73ffffffffffffffffffffffffffffffffffffffff1673ffffffffffffffffffffffffffffffffffffffff16815260200190815260200160002060000160008373ffffffffffffffffffffffffffffffffffffffff1673ffffffffffffffffffffffffffffffffffffffff16815260200190815260200160002081905550600760008973ffffffffffffffffffffffffffffffffffffffff1673ffffffffffffffffffffffffffffffffffffffff16815260200190815260200160002060008773ffffffffffffffffffffffffffffffffffffffff1673ffffffffffffffffffffffffffffffffffffffff16815260200190815260200160002060020160008273ffffffffffffffffffffffffffffffffffffffff1673ffffffffffffffffffffffffffffffffffffffff168152602001908152602001600020600460008a73ffffffffffffffffffffffffffffffffffffffff1673ffffffffffffffffffffffffffffffffffffffff16815260200190815260200160002060020160008373ffffffffffffffffffffffffffffffffffffffff1673ffffffffffffffffffffffffffffffffffffffff16815260200190815260200160002090805461251590614883565b61252092919061372a565b50600760008973ffffffffffffffffffffffffffffffffffffffff1673ffffffffffffffffffffffffffffffffffffffff16815260200190815260200160002060008773ffffffffffffffffffffffffffffffffffffffff1673ffffffffffffffffffffffffffffffffffffffff16815260200190815260200160002060010160008273ffffffffffffffffffffffffffffffffffffffff1673ffffffffffffffffffffffffffffffffffffffff168152602001908152602001600020600460008a73ffffffffffffffffffffffffffffffffffffffff1673ffffffffffffffffffffffffffffffffffffffff16815260200190815260200160002060010160008373ffffffffffffffffffffffffffffffffffffffff1673ffffffffffffffffffffffffffffffffffffffff16815260200190815260200160002090805461266890614883565b61267392919061372a565b50508080612680906148e6565b91505061211e565b5060019450505050505b919050565b600081905060005b600460008573ffffffffffffffffffffffffffffffffffffffff1673ffffffffffffffffffffffffffffffffffffffff16815260200190815260200160002060030180549050811015612cbe576000600460008673ffffffffffffffffffffffffffffffffffffffff1673ffffffffffffffffffffffffffffffffffffffff1681526020019081526020016000206003018281548110612768577f4e487b7100000000000000000000000000000000000000000000000000000000600052603260045260246000fd5b9060005260206000200160009054906101000a900473ffffffffffffffffffffffffffffffffffffffff16905061279d6137b7565b600460008773ffffffffffffffffffffffffffffffffffffffff1673ffffffffffffffffffffffffffffffffffffffff1681526020019081526020016000206002016000600460008973ffffffffffffffffffffffffffffffffffffffff1673ffffffffffffffffffffffffffffffffffffffff168152602001908152602001600020600301858154811061285b577f4e487b7100000000000000000000000000000000000000000000000000000000600052603260045260246000fd5b9060005260206000200160009054906101000a900473ffffffffffffffffffffffffffffffffffffffff1673ffffffffffffffffffffffffffffffffffffffff1673ffffffffffffffffffffffffffffffffffffffff16815260200190815260200160002080546128cb90614883565b80601f01602080910402602001604051908101604052809291908181526020018280546128f790614883565b80156129445780601f1061291957610100808354040283529160200191612944565b820191906000526020600020905b81548152906001019060200180831161292757829003601f168201915b50505050508160000181905250600460008773ffffffffffffffffffffffffffffffffffffffff1673ffffffffffffffffffffffffffffffffffffffff1681526020019081526020016000206001016000600460008973ffffffffffffffffffffffffffffffffffffffff1673ffffffffffffffffffffffffffffffffffffffff1681526020019081526020016000206003018581548110612a0f577f4e487b7100000000000000000000000000000000000000000000000000000000600052603260045260246000fd5b9060005260206000200160009054906101000a900473ffffffffffffffffffffffffffffffffffffffff1673ffffffffffffffffffffffffffffffffffffffff1673ffffffffffffffffffffffffffffffffffffffff1681526020019081526020016000208054612a7f90614883565b80601f0160208091040260200160405190810160405280929190818152602001828054612aab90614883565b8015612af85780601f10612acd57610100808354040283529160200191612af8565b820191906000526020600020905b815481529060010190602001808311612adb57829003601f168201915b50505050508160200181905250600460008773ffffffffffffffffffffffffffffffffffffffff1673ffffffffffffffffffffffffffffffffffffffff1681526020019081526020016000206000016000600460008973ffffffffffffffffffffffffffffffffffffffff1673ffffffffffffffffffffffffffffffffffffffff1681526020019081526020016000206003018581548110612bc3577f4e487b7100000000000000000000000000000000000000000000000000000000600052603260045260246000fd5b9060005260206000200160009054906101000a900473ffffffffffffffffffffffffffffffffffffffff1673ffffffffffffffffffffffffffffffffffffffff1673ffffffffffffffffffffffffffffffffffffffff16815260200190815260200160002054816040018181525050428160600181815250508373ffffffffffffffffffffffffffffffffffffffff1663d99db60183836040518363ffffffff1660e01b8152600401612c779291906143c9565b600060405180830381600087803b158015612c9157600080fd5b505af1158015612ca5573d6000803e3d6000fd5b5050505050508080612cb6906148e6565b91505061269f565b50505050565b60005b600460008373ffffffffffffffffffffffffffffffffffffffff1673ffffffffffffffffffffffffffffffffffffffff168152602001908152602001600020600301805490508110156130b5576000600460008473ffffffffffffffffffffffffffffffffffffffff1673ffffffffffffffffffffffffffffffffffffffff1681526020019081526020016000206003018281548110612d90577f4e487b7100000000000000000000000000000000000000000000000000000000600052603260045260246000fd5b9060005260206000200160009054906101000a900473ffffffffffffffffffffffffffffffffffffffff169050600960008473ffffffffffffffffffffffffffffffffffffffff1673ffffffffffffffffffffffffffffffffffffffff168152602001908152602001600020600001600460008573ffffffffffffffffffffffffffffffffffffffff1673ffffffffffffffffffffffffffffffffffffffff16815260200190815260200160002060000160008373ffffffffffffffffffffffffffffffffffffffff1673ffffffffffffffffffffffffffffffffffffffff168152602001908152602001600020549080600181540180825580915050600190039060005260206000200160009091909190915055600960008473ffffffffffffffffffffffffffffffffffffffff1673ffffffffffffffffffffffffffffffffffffffff168152602001908152602001600020600201600460008573ffffffffffffffffffffffffffffffffffffffff1673ffffffffffffffffffffffffffffffffffffffff16815260200190815260200160002060020160008373ffffffffffffffffffffffffffffffffffffffff1673ffffffffffffffffffffffffffffffffffffffff16815260200190815260200160002090806001815401808255809150506001900390600052602060002001600090919091909150908054612f9790614883565b612fa292919061372a565b50600960008473ffffffffffffffffffffffffffffffffffffffff1673ffffffffffffffffffffffffffffffffffffffff168152602001908152602001600020600101600460008573ffffffffffffffffffffffffffffffffffffffff1673ffffffffffffffffffffffffffffffffffffffff16815260200190815260200160002060010160008373ffffffffffffffffffffffffffffffffffffffff1673ffffffffffffffffffffffffffffffffffffffff1681526020019081526020016000209080600181540180825580915050600190039060005260206000200160009091909190915090805461309590614883565b6130a092919061372a565b505080806130ad906148e6565b915050612cc7565b5050565b6000808273ffffffffffffffffffffffffffffffffffffffff16600360008673ffffffffffffffffffffffffffffffffffffffff1673ffffffffffffffffffffffffffffffffffffffff16815260200190815260200160002060010160009054906101000a900473ffffffffffffffffffffffffffffffffffffffff1673ffffffffffffffffffffffffffffffffffffffff161490506000600360008673ffffffffffffffffffffffffffffffffffffffff1673ffffffffffffffffffffffffffffffffffffffff16815260200190815260200160002060040154600460008773ffffffffffffffffffffffffffffffffffffffff1673ffffffffffffffffffffffffffffffffffffffff16815260200190815260200160002060000160008673ffffffffffffffffffffffffffffffffffffffff1673ffffffffffffffffffffffffffffffffffffffff1681526020019081526020016000205412159050600080600560008873ffffffffffffffffffffffffffffffffffffffff1673ffffffffffffffffffffffffffffffffffffffff1681526020019081526020016000208054806020026020016040519081016040528092919081815260200182805480156132da57602002820191906000526020600020905b8160009054906101000a900473ffffffffffffffffffffffffffffffffffffffff1673ffffffffffffffffffffffffffffffffffffffff1681526020019060010190808311613290575b5050505050905060005b815181101561337957818181518110613326577f4e487b7100000000000000000000000000000000000000000000000000000000600052603260045260246000fd5b602002602001015173ffffffffffffffffffffffffffffffffffffffff168773ffffffffffffffffffffffffffffffffffffffff16141561336657613379565b8080613371906148e6565b9150506132e4565b50600083806133855750825b8061338d5750845b9050809550505050505092915050565b600044426040516020016133b2929190614382565b6040516020818303038152906040528051906020012060001c905090565b600081518351146133e457600090506134a1565b60008351905060005b8181101561349a5783818151811061342e577f4e487b7100000000000000000000000000000000000000000000000000000000600052603260045260246000fd5b602002602001015185828151811061346f577f4e487b7100000000000000000000000000000000000000000000000000000000600052603260045260246000fd5b602002602001015114613487576000925050506134a1565b8080613492906148e6565b9150506133ed565b5060019150505b92915050565b6040518060800160405280606081526020016060815260200160608152602001606081525090565b8280546134db90614883565b90600052602060002090601f0160209004810192826134fd5760008555613544565b82601f1061351657805160ff1916838001178555613544565b82800160010185558215613544579182015b82811115613543578251825591602001919060010190613528565b5b50905061355191906137df565b5090565b8280548282559060005260206000209081019282156135ce579160200282015b828111156135cd5782518260006101000a81548173ffffffffffffffffffffffffffffffffffffffff021916908373ffffffffffffffffffffffffffffffffffffffff16021790555091602001919060010190613575565b5b5090506135db91906137df565b5090565b6040518060c0016040528060608152602001600073ffffffffffffffffffffffffffffffffffffffff168152602001606081526020016000815260200160008152602001600081525090565b82805482825590600052602060002090810192821561366c5760005260206000209182015b8281111561366b578254825591600101919060010190613650565b5b50905061367991906137df565b5090565b8280548282559060005260206000209081019282156136b9579160200282015b828111156136b857825182559160200191906001019061369d565b5b5090506136c691906137fc565b5090565b828054828255906000526020600020908101928215613719579160200282015b828111156137185782518290805190602001906137089291906134cf565b50916020019190600101906136ea565b5b5090506137269190613819565b5090565b82805461373690614883565b90600052602060002090601f01602090048101928261375857600085556137a6565b82601f1061376957805485556137a6565b828001600101855582156137a657600052602060002091601f016020900482015b828111156137a557825482559160010191906001019061378a565b5b5090506137b391906137df565b5090565b6040518060800160405280606081526020016060815260200160008152602001600081525090565b5b808211156137f85760008160009055506001016137e0565b5090565b5b808211156138155760008160009055506001016137fd565b5090565b5b808211156138395760008181613830919061383d565b5060010161381a565b5090565b50805461384990614883565b6000825580601f1061385b575061387a565b601f01602090049060005260206000209081019061387991906137df565b5b50565b600061389061388b84614581565b61455c565b905080838252602082019050828560208602820111156138af57600080fd5b60005b858110156138df57816138c58882613a19565b8452602084019350602083019250506001810190506138b2565b5050509392505050565b60006138fc6138f7846145ad565b61455c565b9050808382526020820190508285602086028201111561391b57600080fd5b60005b8581101561394b57816139318882613aac565b84526020840193506020830192505060018101905061391e565b5050509392505050565b6000613968613963846145d9565b61455c565b9050808382526020820190508285602086028201111561398757600080fd5b60005b858110156139d157813567ffffffffffffffff8111156139a957600080fd5b8086016139b68982613ac1565b8552602085019450602084019350505060018101905061398a565b5050509392505050565b60006139ee6139e984614605565b61455c565b905082815260208101848484011115613a0657600080fd5b613a11848285614841565b509392505050565b600081359050613a2881614c37565b92915050565b600082601f830112613a3f57600080fd5b8135613a4f84826020860161387d565b91505092915050565b600082601f830112613a6957600080fd5b8135613a798482602086016138e9565b91505092915050565b600082601f830112613a9357600080fd5b8135613aa3848260208601613955565b91505092915050565b600081359050613abb81614c4e565b92915050565b600082601f830112613ad257600080fd5b8135613ae28482602086016139db565b91505092915050565b600060c08284031215613afd57600080fd5b613b0760c061455c565b9050600082013567ffffffffffffffff811115613b2357600080fd5b613b2f84828501613ac1565b6000830152506020613b4384828501613a19565b602083015250604082013567ffffffffffffffff811115613b6357600080fd5b613b6f84828501613a2e565b6040830152506060613b8384828501613c8b565b6060830152506080613b9784828501613aac565b60808301525060a0613bab84828501613c8b565b60a08301525092915050565b600060808284031215613bc957600080fd5b613bd3608061455c565b9050600082013567ffffffffffffffff811115613bef57600080fd5b613bfb84828501613a58565b600083015250602082013567ffffffffffffffff811115613c1b57600080fd5b613c2784828501613a82565b602083015250604082013567ffffffffffffffff811115613c4757600080fd5b613c5384828501613a82565b604083015250606082013567ffffffffffffffff811115613c7357600080fd5b613c7f84828501613a2e565b60608301525092915050565b600081359050613c9a81614c65565b92915050565b600060208284031215613cb257600080fd5b6000613cc084828501613a19565b91505092915050565b60008060408385031215613cdc57600080fd5b6000613cea85828601613a19565b9250506020613cfb85828601613a19565b9150509250929050565b60008060408385031215613d1857600080fd5b6000613d2685828601613a19565b925050602083013567ffffffffffffffff811115613d4357600080fd5b613d4f85828601613a2e565b9150509250929050565b60008060408385031215613d6c57600080fd5b6000613d7a85828601613a19565b925050602083013567ffffffffffffffff811115613d9757600080fd5b613da385828601613aeb565b9150509250929050565b60008060408385031215613dc057600080fd5b6000613dce85828601613a19565b925050602083013567ffffffffffffffff811115613deb57600080fd5b613df785828601613bb7565b9150509250929050565b6000613e0d8383613e45565b60208301905092915050565b6000613e258383614080565b60208301905092915050565b6000613e3d838361408f565b905092915050565b613e4e816147ef565b82525050565b613e5d816147ef565b82525050565b6000613e6e8261467b565b613e7881856146ce565b9350613e8383614636565b8060005b83811015613eb4578151613e9b8882613e01565b9750613ea6836146a7565b925050600181019050613e87565b5085935050505092915050565b6000613ecc8261467b565b613ed681856146df565b9350613ee183614636565b8060005b83811015613f12578151613ef98882613e01565b9750613f04836146a7565b925050600181019050613ee5565b5085935050505092915050565b6000613f2a82614686565b613f3481856146f0565b9350613f3f83614646565b8060005b83811015613f70578151613f578882613e19565b9750613f62836146b4565b925050600181019050613f43565b5085935050505092915050565b6000613f8882614691565b613f928185614701565b935083602082028501613fa485614656565b8060005b85811015613fe05784840389528151613fc18582613e31565b9450613fcc836146c1565b925060208a01995050600181019050613fa8565b50829750879550505050505092915050565b613ffb81614801565b82525050565b6000815461400e81614883565b6140188186614712565b94506001821660008114614033576001811461404457614077565b60ff19831686528186019350614077565b61404d85614666565b60005b8381101561406f57815481890152600182019150602081019050614050565b838801955050505b50505092915050565b6140898161480d565b82525050565b600061409a8261469c565b6140a4818561471d565b93506140b4818560208601614850565b6140bd81614a26565b840191505092915050565b60006140d38261469c565b6140dd818561472e565b93506140ed818560208601614850565b6140f681614a26565b840191505092915050565b600061410e604e8361472e565b915061411982614a37565b606082019050919050565b6000614131602f8361472e565b915061413c82614aac565b604082019050919050565b600061415460178361472e565b915061415f82614afb565b602082019050919050565b600061417760428361472e565b915061418282614b24565b606082019050919050565b600061419a60318361472e565b91506141a582614b99565b604082019050919050565b60006141bd60278361472e565b91506141c882614be8565b604082019050919050565b600060c08301600083015184820360008601526141f0828261408f565b91505060208301516142056020860182613e45565b506040830151848203604086015261421d8282613e63565b91505060608301516142326060860182614345565b5060808301516142456080860182614080565b5060a083015161425860a0860182614345565b508091505092915050565b600060808301600083015184820360008601526142808282613f1f565b9150506020830151848203602086015261429a8282613f7d565b915050604083015184820360408601526142b48282613f7d565b915050606083015184820360608601526142ce8282613e63565b9150508091505092915050565b600060808301600083015184820360008601526142f8828261408f565b91505060208301518482036020860152614312828261408f565b91505060408301516143276040860182614080565b50606083015161433a6060860182614345565b508091505092915050565b61434e81614837565b82525050565b61436561436082614837565b61492f565b82525050565b60006143778284614001565b915081905092915050565b600061438e8285614354565b60208201915061439e8284614354565b6020820191508190509392505050565b60006020820190506143c36000830184613e54565b92915050565b60006040820190506143de6000830185613e54565b81810360208301526143f081846142db565b90509392505050565b600060208201905081810360008301526144138184613ec1565b905092915050565b60006020820190506144306000830184613ff2565b92915050565b6000602082019050818103600083015261445081846140c8565b905092915050565b6000602082019050818103600083015261447181614101565b9050919050565b6000602082019050818103600083015261449181614124565b9050919050565b600060208201905081810360008301526144b181614147565b9050919050565b600060208201905081810360008301526144d18161416a565b9050919050565b600060208201905081810360008301526144f18161418d565b9050919050565b60006020820190508181036000830152614511816141b0565b9050919050565b6000602082019050818103600083015261453281846141d3565b905092915050565b600060208201905081810360008301526145548184614263565b905092915050565b6000614566614577565b905061457282826148b5565b919050565b6000604051905090565b600067ffffffffffffffff82111561459c5761459b6149f7565b5b602082029050602081019050919050565b600067ffffffffffffffff8211156145c8576145c76149f7565b5b602082029050602081019050919050565b600067ffffffffffffffff8211156145f4576145f36149f7565b5b602082029050602081019050919050565b600067ffffffffffffffff8211156146205761461f6149f7565b5b61462982614a26565b9050602081019050919050565b6000819050602082019050919050565b6000819050602082019050919050565b6000819050602082019050919050565b60008190508160005260206000209050919050565b600081519050919050565b600081519050919050565b600081519050919050565b600081519050919050565b6000602082019050919050565b6000602082019050919050565b6000602082019050919050565b600082825260208201905092915050565b600082825260208201905092915050565b600082825260208201905092915050565b600082825260208201905092915050565b600081905092915050565b600082825260208201905092915050565b600082825260208201905092915050565b600061474a82614837565b915061475583614837565b9250827fffffffffffffffffffffffffffffffffffffffffffffffffffffffffffffffff0382111561478a5761478961496a565b5b828201905092915050565b60006147a082614837565b91506147ab83614837565b9250817fffffffffffffffffffffffffffffffffffffffffffffffffffffffffffffffff04831182151516156147e4576147e361496a565b5b828202905092915050565b60006147fa82614817565b9050919050565b60008115159050919050565b6000819050919050565b600073ffffffffffffffffffffffffffffffffffffffff82169050919050565b6000819050919050565b82818337600083830152505050565b60005b8381101561486e578082015181840152602081019050614853565b8381111561487d576000848401525b50505050565b6000600282049050600182168061489b57607f821691505b602082108114156148af576148ae6149c8565b5b50919050565b6148be82614a26565b810181811067ffffffffffffffff821117156148dd576148dc6149f7565b5b80604052505050565b60006148f182614837565b91507fffffffffffffffffffffffffffffffffffffffffffffffffffffffffffffffff8214156149245761492361496a565b5b600182019050919050565b6000819050919050565b600061494482614837565b915061494f83614837565b92508261495f5761495e614999565b5b828206905092915050565b7f4e487b7100000000000000000000000000000000000000000000000000000000600052601160045260246000fd5b7f4e487b7100000000000000000000000000000000000000000000000000000000600052601260045260246000fd5b7f4e487b7100000000000000000000000000000000000000000000000000000000600052602260045260246000fd5b7f4e487b7100000000000000000000000000000000000000000000000000000000600052604160045260246000fd5b6000601f19601f8301169050919050565b7f4f6e6c792073636f726573207265616368207468652074687265686f6c64206f60008201527f722062652072616e646f6d6c792073656c65637465642063616e207375626d6960208201527f7420736f6369616c20646174612e000000000000000000000000000000000000604082015250565b7f4f6e6c79206d616e6167657220686176652072696768747320746f20656e642060008201527f6120736f6369616c206f7261636c650000000000000000000000000000000000602082015250565b7f44414f20616c726561647920726567697374657265642e000000000000000000600082015250565b7f4f6e6c79207768656e20736f6369616c206f7261636c6520737461727465642060008201527f63616e206d656d626572207375626d69742074686520736f6369616c2064617460208201527f612e000000000000000000000000000000000000000000000000000000000000604082015250565b7f4f6e6c79206d616e6167657220686176652072696768747320746f207374617260008201527f74206120736f6369616c206f7261636c65000000000000000000000000000000602082015250565b7f4f6e6c79206d616e6167657220686176652072696768747320746f206164642060008201527f6d656d6265727300000000000000000000000000000000000000000000000000602082015250565b614c40816147ef565b8114614c4b57600080fd5b50565b614c578161480d565b8114614c6257600080fd5b50565b614c6e81614837565b8114614c7957600080fd5b5056fea2646970667358221220cb4f794febe709d6106ab55c166dd8d48012e846ebc2cf3f13c40c73a6dff4cb64736f6c63430008040033",
    "linkReferences": {},
    "deployedLinkReferences": {}
}